:020000000120DD
:04000B0012003F326E
:1000200085008085009075A8927589027E007F000A
:10003000758AC0758CC0D28C120059C302003C0F67
:0F004000EF94015004120059227F00E530600553
:10004F0075300080F17530FF80ECE5305528452084
:10005F00F580D290C290E53055294521F580D29197
:10006F00C291E530552A4522F580D292C292E530F1
:10007F00552B4523F580D293C293E530552C45245B
:10008F00F580D294C294E530552D4525F580D29553
:10009F00C295E530552E4526F580D296C296E530AD
:0B00AF00552F4527F580D297C29722FD
:00000001FF
