:020000000120DD
:04000B001200443269
:0E00200085008085009075A8927589027F008A
:10002E00758AC0758CC0D28C75183812005ED200DD
:10003E00C31200BF80FB0FEF9401500412005E222A
:10004E007F00E530600575300080F17530FF80EC83
:10005E00E53055404538F580D290C290E530554197
:10006E004539F580D291C291E5305542453AF58039
:10007E00D292C292E5305543453BF580D293C2935E
:10008E00E5305544453CF580D294C294E530554553
:10009E00453DF580D295C295E5305546453EF580F5
:1000AE00D296C296E5305547453FF580D297C29716
:1000BE0022300023E5A0F4FB7A0774382AF8E65BB9
:1000CE00F974402AF8E65B496006EA600A1A80EA8B
:0800DE00E5182AF8E64BF622B2
:00000001FF
