:020000000120DD
:04000B0012003C3271
:0E00200085008085009075A8927589027F008A
:10002E00758AC0758CC0D28C120048C3013A0FEF8E
:10003E0094195002C32212004822E530552845205B
:10004E00F580D290C290E53055294521F580D291A8
:10005E00C291E530552A4522F580D292C292E53002
:10006E00552B4523F580D293C293E530552C45246C
:10007E00F580D294C294E530552D4525F580D29564
:10008E00C295E530552E4526F580D296C296E530BE
:0B009E00552F4527F580D297C297220E
:00000001FF
