:020000000120DD
:08000B00F519120046E5193257
:1000200085008085009075A8927589027E007F000A
:10003000758AC0758CC0D28C751838120069D200D0
:0F004000C31200CA80FB0EEE94025001220FEF94
:10004F00940150067E00120069227F00E5306005A2
:10005F0075300080EF7530FF80EAE5305540453848
:10006F00F580D290C290E53055414539F580D29157
:10007F00C291E5305542453AF580D292C292E530B1
:10008F005543453BF580D293C293E5305544453CEB
:10009F00F580D294C294E5305545453DF580D29513
:1000AF00C295E5305546453EF580D296C296E5306D
:0F00BF005547453FF580D297C29722E5A0F4FB45
:1000CE0060283000277A0774382AF8E65BF9744006
:1000DE002AF8E65B496006EA60121A80EAE5182AF9
:0F00EE00F8E64BF6C2001200FB22D20022743853
:0B00FD00B51804751840227518382251
:00000001FF
